:1000000017C031C030C02FC086C02DC02CC02BC03F
:100010002AC029C028C027C026C025C024C001028C
:1000200004081020010101010101003600380037E9
:1000300011241FBECFE5D2E0DEBFCDBF10E0A0E6A9
:10004000B0E0EEEFF3E002C005900D92A436B107E8
:10005000D9F720E0A4E6B0E001C01D92A137B207B5
:10006000E1F7C7D1CAC1CCCF61E08091660030D141
:1000700062E0809162002CC1809162008FD1019773
:10008000B9F5609164007091650080916600EBD0D5
:100090002091600030916100809164009091650032
:1000A000820F931F9093650080936400AC014150D0
:1000B00051094E3F5105B8F03195219531093093E2
:1000C0006100209360008F3F91056CF060E08091AB
:1000D0006600FED060ED77E080E090E087D061E0E0
:1000E00080916600F5D06AE070E080E090E07EC02C
:1000F00060E080916600ECC083B7887F83BF8AB5DB
:100100008C7F81608ABD83B7877F83BF83B7887FF9
:10011000836083BF089578941F920F920FB60F9259
:1001200011242F933F938F939F93AF93BF9380910D
:10013000690090916A00A0916B00B0916C003091C1
:1001400068002CE7230F2D3728F02FEF230F01969F
:10015000A11DB11D209368008093690090936A00EF
:10016000A0936B00B0936C0080916D0090916E0035
:10017000A0916F00B09170000196A11DB11D8093F8
:100180006D0090936E00A0936F00B0937000BF91CC
:10019000AF919F918F913F912F910F900FBE0F9034
:1001A0001F9018953FB7F89480916D0090916E0064
:1001B000A0916F00B09170002FB508B602FE05C087
:1001C0002F3F19F00196A11DB11D3FBF6627782F63
:1001D000892F9A2F620F711D811D911D42E0660FBC
:1001E000771F881F991F4A95D1F70895CF92DF9204
:1001F000EF92FF92CF93DF936B017C01D3DFEB0192
:10020000C114D104E104F10471F0CCDF6C1B7D0B4F
:10021000683E7340A8F381E0C81AD108E108F108EC
:10022000C851DC4FEDCFDF91CF91FF90EF90DF9081
:10023000CF900895789480B7806880BF80B780643D
:1002400080BF8CB580648CBD8FEF8DBD80B7807F03
:10025000876080BF89B7846089BF4EDF86B18760C1
:1002600086B9379A08951F93CF93DF93182FEB0128
:1002700061E02ED01C161D0614F060E004C0CF3FD4
:10028000D10534F061E0812FDF91CF911F9157C0EC
:10029000111106C08AB58F7380688ABDC9BD14C0AC
:1002A000113031F48AB58F7C80628ABDC8BD0CC024
:1002B000143031F48CB58F7C80628CBDCBBD04C012
:1002C000C038D105FCF6D9CFDF91CF911F910895A9
:1002D000CF93DF9390E0FC01E25EFF4F2491FC019D
:1002E000EC5DFF4F8491882339F190E0FC01E25DE1
:1002F000FF4FA491B0E0FC01E45DFF4F84916111D8
:1003000006C09FB7F8948C912095822313C0623069
:1003100069F4C82FD0E09FB7F8948C91322F3095B4
:1003200083238C938881822B888305C09FB7F894A0
:100330008C91822B8C939FBFDF91CF910895A82F32
:10034000B0E0FD01E25EFF4F9491FD01EC5DFF4FD7
:10035000E491EE2311F1811103C08AB58F7304C0BB
:10036000813021F48AB58F7C8ABD05C0843019F4B0
:100370008CB58F7C8CBDF0E0E45DFF4FA491B0E0C4
:100380002FB7611105C0F8948C919095892303C013
:10039000F8948C91892B8C932FBF0895282F30E0EF
:1003A000F901E25EFF4F9491F901EC5DFF4FE4919A
:1003B000EE23E1F0811103C08AB58F7304C0813050
:1003C00021F48AB58F7C8ABD05C0843019F48CB5C0
:1003D0008F7C8CBDF0E0E65DFF4FE491F0E0208182
:1003E000292381E090E021F480E0089580E090E00E
:0E03F000089520DF39DE40DEFECFF894FFCF07
:0403FE0001000100F9
:00000001FF
